:02000000E72CEB
:10000800FF00030E83018316E8000A08E9008A014D
:1000180070088312A1008B138B1C2528EE0A031984
:10002800EF0A00306F06031D1B2802306E06031D01
:100038001F28EE01EF01C401C5010130DA000030CC
:10004800DB008B108B172108F000831669088A00E3
:0A005800680E8300FF0E7F0E090002
:08006200FA1FF2130030080040
:06006A0000000000080088
:100070000F3083120313FC004730FD00FD0B3E28B8
:0A008000FC0B3E2800000000080001
:0E008A00213083120313FD00FD0B49280800EE
:100098007B15FB1F56280130F300F201F101F00136
:0800A800FA0DF20CFF30080014
:0E00B000F201F101F001F801F3010030080047
:1000BE0083120313F801F9011030FC00710DF80DD5
:1000CE00F90D7408F8027508031C750FF902031870
:1000DE0077287408F80775080318750FF9070310C9
:0A00EE00F00DF10DFC0B6528080071
:1000F8007B14FB1F8728F201FA1FFF30F200F10082
:0A010800F000FA0DF20CFF300800C1
:10011200FB14FB1F9328FF30F300F200F100F00004
:08012200FA0DF20CFF30080099
:10012A00831203179B1B9C28031388139E2803130F
:10013A00881703171B1BA42803130813A6280313E5
:10014A00081703179B1AAC2803138812AE28031347
:10015A00881603171B1AB42803130812B6280313A8
:10016A00081683165818BC2883120815BE2883124D
:10017A00081188153520881103179B19C7280313FE
:10018A008813C9280313881703171B19CF280313C9
:10019A000813D1280313081703179B18D72803132A
:1001AA008812D9280313881603171B18DF2803138C
:1001BA000812E1280313081683165818E728831231
:1001CA000815E92883120811881535208811831625
:0C01DA00581CF1283820F22845200800AD
:1001E600A0017208031D08297108F2007008F100C9
:1001F600F001A0157208031D08297108F200F1012B
:10020600A01120167208031916292008F302031DEF
:10021600031C1A290310F21B1E29F00DF10DF20D15
:10022600F30B0E291A290130FC005820212902302F
:0E023600FC004C2021290430FC00312008007F
:06024400FB15FF3008006D
:10024A008312031799010530190203183329190873
:10025A001807840020308000990A282919081807ED
:10026A00840080019903190818079A000A30F400DB
:10027A00F5011608F0001708F1005F207808F00071
:10028A007908F1003030F00703171A088400700863
:10029A0080000A30F400F5011608F0001708F10092
:1002AA005F207008031796007108970000307106E6
:1002BA00031D612900307006031D6429662999030C
:0402CA0038290800C7
:1002CE00831203137008F8007108F000F101F201B7
:1002DE00F301FB01FC019630F300FA01F01F7D29BA
:1002EE00F809F009F80A0319F00AFA177008F10074
:0C02FE007808F000F801F201F32008007D
:10030A008316031358108312031716089B009520AF
:06031A00831658140800D0
:1003200083120313FB0173080319CD297208FA0025
:10033000F2178E30F302F31FD029F309F30A0830C5
:100340007302031CB329F300F10D7208F100F201EE
:1003500008307302031CB329F300F10DF101730897
:10036000031D0310BB2973080319BB290310F20CEA
:10037000F10CF30BB6297B1B711CC529031CC52985
:10038000F10A0319F20AF21BDC29FA1FDF29F2092C
:10039000F109F10A0319F20ADF29F201F101DF295B
:1003A0007B14FB1FE229F201FA1FE229FF30F20061
:1003B000F100FA0DF20CE2290130FC00E4290030D2
:1003C000FC00E429FF30FC00FC080319E8297C202C
:0A03D0007108F0007208F100080047
:1003DA00831203137408003A031D082A7508003AA9
:1003EA00031D082A7608003A031D082A7708003AEE
:1003FA00031D082AFF30F000FF30F1007F30F200C1
:10040A00FF30F300A32A8312031377080319972AEC
:10041A00730803199A2A720876068039FA00F217C5
:10042A00F617A0017208F8007108FC007008FD00B8
:10043A007408FD027508031C750FFC027608031C7C
:10044A00760FF802F801FC01FD01031C332A0310A0
:10045A00F20CF10CF00CF80C0130A0007708F30252
:10046A00031C3D2A7E302007F30703189D2A422ADF
:10047A007E302007F307031CA02A1830FA07FD0D67
:10048A00FC0DF80DF00DF10DF20DA00D7408F0023F
:10049A007508031C750FF1027608031C760FF20229
:1004AA00760DA004201C5B2A7D14662A7408F007C6
:1004BA0075080318750FF10776080318760AF2070C
:1004CA007D10FA031F307A05031D442A7B1B7D1C0D
:1004DA008D2A0310F00DF10DF20DA00D7408F00233
:1004EA007508031C750FF1027608031C760FF202D9
:1004FA00760D20040139FD070318FC0A0319F80ACE
:10050A00031D8D2AF80CFC0CFD0CF30A03199D2A15
:10051A00FA1FF8137808F2007C08F1007D08F00051
:10052A000030A22A01302221A22A02305820A22A0F
:0E053A0004308920A22A08304C20000008005E
:100548008312031792019301831603136C08831215
:1005580003179400831603136D088312031795007D
:100568008030831603136D06F00080307002031D7F
:10057800BF2A00306C020318D72A013083120317F0
:10058800920000309300831603136C08003C83121A
:1005980003179400831603136D08031C013E83128E
:1005A800031795019502831203171408960015087E
:1005B8009700831603136E088312031798002521EA
:1005C80006309000003091001108003C031DEE2A0F
:1005D8001008003C0318112B1008831603136E072C
:1005E800F2000130831203171002F0000030031CE0
:1005F800013E1102F1007008831603136E07840090
:100608000008F0007208840070088000013083122E
:1006180003179002031C9103E82A831603136E083C
:100628008400203080008312031712081304031972
:100638003B2B900191011008831603136E07840069
:100648000008203A031D2E2B83120317900A031962
:10065800910A1F2B8312031701309002031C910388
:100668001008831603136E0784002D3080000800DD
:1006780083160313ED01EE016C08F2006C08F30019
:10068800720884000008203A031D4F2B6D086E0481
:10069800031D4F2B5C2B0130ED000030EE0072087B
:1006A80084000008F0007308840070088000F30AD2
:1006B8007208F100F20A710884000008003A031D6C
:0806C800442B6C08F00008004F
:1006D000831203138F018E0186141A30FC00F83048
:1006E000FD00FD0B712BFC0B712B00008610061911
:1006F0007A2B772B1014061D7E2B7B2B10100F08E6
:10070000F100F0010E08F0040030F10470088316C7
:10071000DB007108DC006721AE30F4004730F500E3
:100720006B30F6008430F700ED21902170088316BD
:10073000D9007108DA00F00A0319F10A7008D9002B
:060740007108DA00080058
:10074600B52B803083160313EC00C82BC030EC00A9
:10075600C82B9430EC00C82BD430EC00C82B80306A
:10076600EC00C82B831603136C08013A0319A42B5B
:100776006C08023A0319A92B6C08033A0319AC2B2F
:100786006C08043A0319AF2BB22B6D03F0006C080A
:10079600F0077008EC007008831203179B00952081
:1007A60083165810EF016F086E07840000080319BE
:1007B600E62B6F086E078400000883120317960065
:0A07C6008521EF0AD62B5814080015
:0E07D000831603135E088A005D08820008008D
:1007DE00831203132F088316EC008312300883163E
:1007EE00ED00DF30EE00A422DF3083160313EC00A1
:1007FE003C230130831203179B0095200130831692
:10080E00EC000130ED00AC30EE00A3230230EC0022
:10081E000130ED00A330EE00A3230230EC000C30CB
:10082E00ED00DF30EE00A3230230EC000E30ED00C1
:08083E00A030EE00A323080026
:1008460083160313EA01EB018312870101300317B4
:100856009B00952001308316EC000130ED004630F8
:10086600EE00A32301308312C4000030C5008312BA
:10087600440845040319862C68237008EA007108A9
:10088600EB007008EC007108ED00DF30EE00A422EA
:10089600DF3083160313EC003C230230EC000130FA
:1008A600ED003130EE00A3230230EC000B30ED00FA
:1008B600DF30EE00A32380306B06F000803070023C
:1008C600031D672C0A306A020318702C0230EC00F4
:1008D6000C30ED002D30EE00A3230230EC000D307D
:1008E600ED002A30EE00A3230630FB001330FC0097
:1008F600AD30FD00FD0B7D2CFC0B7D2CFB0B7D2C08
:10090600000000003A2C83166A08F0006B08F1001C
:020916000800D7
:10091800E8238A110A128000840ADD0A0319DE0A14
:08092800F003031D8C2C0800F4
:1009300083160313881108110812881208138813EC
:10094000831288110811881308138812081238209E
:100950003820382088160816881535208811382048
:1009600088153520881138208815352088113820C1
:1009700008128815352088113820881535208811EF
:100980008812881788153520881138208813081692
:1009900088153520881108128815352088113820CF
:1009A00088153520881108168815352088113820BB
:1009B0000812881535208811881708178816081618
:0E09C000881535208811382083165814080039
:1009CE00482798240C30831203179B009520013082
:1009DE0003179B0095200C3003179B0095201530B4
:1009EE0083168600870183128601870110309000DE
:1009FE009F018B170B1600306F06031D082D00305C
:100A0E006E06031D3A2D00305B06031D102D0130BE
:100A1E005A06031D262D013003179B009520DA017F
:100A2E00DB010B30FB002630FC005D30FD00FD0BC2
:100A3E001E2DFC0B1E2DFB0B1E2D00000000232473
:100A4E0070088312AF007108B0001F30FB007130C8
:100A5E00FC001E30FD00FD0B322DFC0B322DFB0B6E
:100A6E00322D0000BA2E00306F06031D402D0130CE
:100A7E006E06031DBA2E00305B06031D482D013095
:100A8E005A06031D642D013003179B009520EF239A
:100A9E000B30FB002630FC005D30FD00FD0B552DAC
:100AAE00FC0B552DFB0B552D000000000130831261
:100ABE0003179B009520DA01DB016823700883126F
:100ACE002F02F0007108031C013E3002F100700885
:100ADE008316E6007108E7007008EC007108ED005F
:100AEE00DF30EE00A422DF3083160313EC003C232C
:100AFE000130EC000130ED005230EE00A323013046
:100B0E00EC000830ED00DF30EE00A32380306706E6
:100B1E00F00080307002031D962D0A306602031815
:100B2E009F2D0130EC000930ED005C30EE00A32368
:100B3E000130EC000A30ED006B30EE00A323803064
:100B4E006706F00080307002031DAF2D073066027D
:100B5E000318BC2D0230EC000130ED006530EE00C4
:100B6E00A32383120714871007118030F000803002
:100B7E00831667067002031DC62D6608073C031810
:100B8E00DF2D80306706F00080307002031DD12DFE
:100B9E000A3066020318DF2D0230EC000130ED0042
:100BAE005E30EE00A3238312071087140711A52EC3
:100BBE008030F0008030831667067002031DE92D29
:100BCE006608093C0318022E80306706F00080305C
:100BDE007002031DF42D0D3066020318022E023032
:100BEE00EC000130ED00C030EE00A323831207109D
:100BFE0087140711A52E8030F0008030831667060B
:100C0E007002031D0C2E66080D3C0318252E803035
:100C1E006706F00080307002031D172E1330660237
:100C2E000318252E0230EC000130ED002230EE00CC
:100C3E00A3238312071087140711A52E8030F0000E
:100C4E008030831667067002031D2F2E6608123C35
:100C5E000318482E80306706F00080307002031DA6
:100C6E003A2E1A3066020318482E0230EC0001307C
:100C7E00ED003C30EE00A3238312071087100715FA
:100C8E00A52E8030F0008030831667067002031D9B
:100C9E00522E66081A3C03186B2E80306706F00041
:100CAE0080307002031D5D2E2530660203186B2EF8
:100CBE000230EC000130ED00C830EE00A3238312A9
:100CCE00071087100715A52E8030F0008030831690
:100CDE0067067002031D752E6608243C03188E2EBF
:100CEE0080306706F00080307002031D802E2D309C
:100CFE00660203188E2E0230EC000130ED00D0306B
:100D0E00EE00A3238312071087100715A52E80303F
:100D1E00F0008030831667067002031D982E660859
:100D2E002C3C0318A52E0230EC000130ED00B8303B
:100D3E00EE00A32383120710871007158312061ED9
:100D4E00AA2E8713AB2E87170630FB001330FC003C
:100D5E00AD30FD00FD0BB12EFC0BB12EFB0BB12EF9
:0A0D6E0000000000BA2E022DBB2E7B
:100E9000223084004E3083120313F000C1308316D9
:100EA000DD000630DE008C24A03084003830F000F5
:0E0EB0000F308316DD000730DE008C240800B2
:100D82005334683469346E342034203420340034CF
:060D920063346D340034EF
:040D980020340034CF
:040D9C0000340034EB
:100DA000443469347334743461346E346334653478
:060DB0003A342034003447
:100DB6004B346E34653465342034203420340034AA
:040DC60000340034C1
:100DCA00433461346C346934623472346134743457
:080DDA0069346F346E340034FB
:100DE2004C346534763465346C343A34203400340F
:040DF2000034003495
:040DF6002034003471
:0E0DFA00473475347434743465347234003404
:0C0E080043346C346534613472340034BF
:060E140063346D3400346C
:040E1A00003400346C
:060E1E0063346D34003462
:100E2400673472346F3475346E3464343A34203435
:020E3400003488
:100E3600443469347334743461346E3463346534E1
:080E4600203474346F340034D1
:100E4E0043346834653473347434203420340034BD
:100E5E005334683469346E342034203420340034F2
:100E6E0048346934703473342034203420340034E0
:100E7E00573461346934733474342034203400347C
:02400E004A2F37
:00000001FF
